{
  "_format": "hh-sol-artifact-1",
  "contractName": "MerkleProofVerification",
  "sourceName": "contracts/MerkleProofVerification.sol",
  "abi": [
    {
      "inputs": [],
      "stateMutability": "nonpayable",
      "type": "constructor"
    },
    {
      "inputs": [
        {
          "internalType": "address",
          "name": "owner",
          "type": "address"
        }
      ],
      "name": "OwnableInvalidOwner",
      "type": "error"
    },
    {
      "inputs": [
        {
          "internalType": "address",
          "name": "account",
          "type": "address"
        }
      ],
      "name": "OwnableUnauthorizedAccount",
      "type": "error"
    },
    {
      "anonymous": false,
      "inputs": [
        {
          "indexed": true,
          "internalType": "address",
          "name": "previousOwner",
          "type": "address"
        },
        {
          "indexed": true,
          "internalType": "address",
          "name": "newOwner",
          "type": "address"
        }
      ],
      "name": "OwnershipTransferred",
      "type": "event"
    },
    {
      "inputs": [],
      "name": "merkleRoot",
      "outputs": [
        {
          "internalType": "bytes32",
          "name": "",
          "type": "bytes32"
        }
      ],
      "stateMutability": "view",
      "type": "function"
    },
    {
      "inputs": [],
      "name": "owner",
      "outputs": [
        {
          "internalType": "address",
          "name": "",
          "type": "address"
        }
      ],
      "stateMutability": "view",
      "type": "function"
    },
    {
      "inputs": [],
      "name": "renounceOwnership",
      "outputs": [],
      "stateMutability": "nonpayable",
      "type": "function"
    },
    {
      "inputs": [
        {
          "internalType": "bytes32",
          "name": "_merkleRoot",
          "type": "bytes32"
        }
      ],
      "name": "setMerkleRoot",
      "outputs": [],
      "stateMutability": "nonpayable",
      "type": "function"
    },
    {
      "inputs": [
        {
          "internalType": "address",
          "name": "newOwner",
          "type": "address"
        }
      ],
      "name": "transferOwnership",
      "outputs": [],
      "stateMutability": "nonpayable",
      "type": "function"
    },
    {
      "inputs": [
        {
          "internalType": "bytes32[]",
          "name": "proof",
          "type": "bytes32[]"
        },
        {
          "internalType": "bytes32",
          "name": "leaf",
          "type": "bytes32"
        }
      ],
      "name": "verifyTransactionInclusion",
      "outputs": [
        {
          "internalType": "bool",
          "name": "",
          "type": "bool"
        }
      ],
      "stateMutability": "view",
      "type": "function"
    }
  ],
  "bytecode": "0x608060405234801561001057600080fd5b5033600073ffffffffffffffffffffffffffffffffffffffff168173ffffffffffffffffffffffffffffffffffffffff16036100845760006040517f1e4fbdf700000000000000000000000000000000000000000000000000000000815260040161007b919061019e565b60405180910390fd5b6100938161009960201b60201c565b506101b9565b60008060009054906101000a900473ffffffffffffffffffffffffffffffffffffffff169050816000806101000a81548173ffffffffffffffffffffffffffffffffffffffff021916908373ffffffffffffffffffffffffffffffffffffffff1602179055508173ffffffffffffffffffffffffffffffffffffffff168173ffffffffffffffffffffffffffffffffffffffff167f8be0079c531659141344cd1fd0a4f28419497f9722a3daafe3b4186f6b6457e060405160405180910390a35050565b600073ffffffffffffffffffffffffffffffffffffffff82169050919050565b60006101888261015d565b9050919050565b6101988161017d565b82525050565b60006020820190506101b3600083018461018f565b92915050565b6107a9806101c86000396000f3fe608060405234801561001057600080fd5b50600436106100625760003560e01c80632eb4a7ab14610067578063715018a6146100855780637cb647591461008f578063896f2887146100ab5780638da5cb5b146100db578063f2fde38b146100f9575b600080fd5b61006f610115565b60405161007c919061041c565b60405180910390f35b61008d61011b565b005b6100a960048036038101906100a49190610477565b61012f565b005b6100c560048036038101906100c091906105fd565b610141565b6040516100d29190610674565b60405180910390f35b6100e3610158565b6040516100f091906106d0565b60405180910390f35b610113600480360381019061010e9190610717565b610181565b005b60015481565b610123610207565b61012d600061028e565b565b610137610207565b8060018190555050565b60006101508360015484610352565b905092915050565b60008060009054906101000a900473ffffffffffffffffffffffffffffffffffffffff16905090565b610189610207565b600073ffffffffffffffffffffffffffffffffffffffff168173ffffffffffffffffffffffffffffffffffffffff16036101fb5760006040517f1e4fbdf70000000000000000000000000000000000000000000000000000000081526004016101f291906106d0565b60405180910390fd5b6102048161028e565b50565b61020f610369565b73ffffffffffffffffffffffffffffffffffffffff1661022d610158565b73ffffffffffffffffffffffffffffffffffffffff161461028c57610250610369565b6040517f118cdaa700000000000000000000000000000000000000000000000000000000815260040161028391906106d0565b60405180910390fd5b565b60008060009054906101000a900473ffffffffffffffffffffffffffffffffffffffff169050816000806101000a81548173ffffffffffffffffffffffffffffffffffffffff021916908373ffffffffffffffffffffffffffffffffffffffff1602179055508173ffffffffffffffffffffffffffffffffffffffff168173ffffffffffffffffffffffffffffffffffffffff167f8be0079c531659141344cd1fd0a4f28419497f9722a3daafe3b4186f6b6457e060405160405180910390a35050565b60008261035f8584610371565b1490509392505050565b600033905090565b60008082905060005b84518110156103b6576103a78286838151811061039a57610399610744565b5b60200260200101516103c1565b9150808060010191505061037a565b508091505092915050565b60008183106103d9576103d482846103ec565b6103e4565b6103e383836103ec565b5b905092915050565b600082600052816020526040600020905092915050565b6000819050919050565b61041681610403565b82525050565b6000602082019050610431600083018461040d565b92915050565b6000604051905090565b600080fd5b600080fd5b61045481610403565b811461045f57600080fd5b50565b6000813590506104718161044b565b92915050565b60006020828403121561048d5761048c610441565b5b600061049b84828501610462565b91505092915050565b600080fd5b6000601f19601f8301169050919050565b7f4e487b7100000000000000000000000000000000000000000000000000000000600052604160045260246000fd5b6104f2826104a9565b810181811067ffffffffffffffff82111715610511576105106104ba565b5b80604052505050565b6000610524610437565b905061053082826104e9565b919050565b600067ffffffffffffffff8211156105505761054f6104ba565b5b602082029050602081019050919050565b600080fd5b600061057961057484610535565b61051a565b9050808382526020820190506020840283018581111561059c5761059b610561565b5b835b818110156105c557806105b18882610462565b84526020840193505060208101905061059e565b5050509392505050565b600082601f8301126105e4576105e36104a4565b5b81356105f4848260208601610566565b91505092915050565b6000806040838503121561061457610613610441565b5b600083013567ffffffffffffffff81111561063257610631610446565b5b61063e858286016105cf565b925050602061064f85828601610462565b9150509250929050565b60008115159050919050565b61066e81610659565b82525050565b60006020820190506106896000830184610665565b92915050565b600073ffffffffffffffffffffffffffffffffffffffff82169050919050565b60006106ba8261068f565b9050919050565b6106ca816106af565b82525050565b60006020820190506106e560008301846106c1565b92915050565b6106f4816106af565b81146106ff57600080fd5b50565b600081359050610711816106eb565b92915050565b60006020828403121561072d5761072c610441565b5b600061073b84828501610702565b91505092915050565b7f4e487b7100000000000000000000000000000000000000000000000000000000600052603260045260246000fdfea26469706673582212202b417ff5b51626186c7ac2cb19f11c9ac16d173fc0ec1827a40ad6c74155ce8264736f6c634300081b0033",
  "linkReferences": {},
  "deployedLinkReferences": {}
}